:100000000C9496000C94AB000C94AB000C94AB00D9
:100010000C94AB000C94AB000C94AB000C94AB00B4
:100020000C94AB000C94AB000C94AB000C94AB00A4
:100030000C94AB000C94AB000C94AB000C94AB0094
:100040000C94AB000C94AB000C94AB000C94AB0084
:100050000C94AB00C301DC01F5010E02260226025E
:100060002602260226022602260226022602260250
:100070002602260226022602260226022602260240
:100080002602260226022602260226022602260230
:1000900026022602C301DC01F5010E0233024C02E6
:1000A00065027E02960296029602960296029602D9
:1000B0009602960296029602960296029602960280
:1000C0009602960296029602960296029602960270
:1000D00096029602960296029602960233024C020D
:1000E00065027E02A402AB02B202B902BF02BF02E5
:1000F000BF02BF02BF02BF02BF02BF02BF02BF02F8
:10010000BF02BF02BF02BF02BF02BF02BF02BF02E7
:10011000BF02BF02BF02BF02BF02BF02BF02BF02D7
:10012000BF02BF02A402AB02B202B90211241FBE79
:10013000CFE5D8E0DEBFCDBF10E0A0E6B0E0EEE94D
:10014000F7E002C005900D92A037B107D9F70E94E1
:10015000BE000C94CD030C9400003E9A309A319A64
:10016000379A089597B1907E97B997B1892B87B93F
:10017000369A3699FECF84B195B108950E94F9025E
:100180000E94AD0082E690E00E947A0304EF11E045
:10019000CFEFD3E00F2EF0E6EF2EF0E0FF2EF02DA4
:1001A00080E00E94B2009C01209FC001219F900D21
:1001B000309F900D1124BE010E94A4037093610032
:1001C000609360006A307105B8F46CE080E00E94D2
:1001D0008903F7018081805D0E9458038FED0E94A2
:1001E000580383E40E94580360E081E00E94890381
:1001F00080E20E945803D4CFCB010A978A3591053B
:1002000008F044C06CE080E00E9489032091600007
:1002100030916100ADECBCEC0E94BE0396958795D1
:100220009695879596958795805D0E945803409195
:100230006000509161009A01ADECBCEC0E94BE03DD
:100240009695879596958795969587959C01220F0B
:10025000331F880F991F880F991F880F991F820FCE
:10026000931F9A01281B390BC901805D0E94580316
:100270008FED0E94580383E40E94580360E081E000
:100280000E94890380E20E9458038ACF6456710954
:100290006333710508F084CF6CE080E00E9489032D
:1002A000209160003091610036952795369527950D
:1002B000ABE7B4E10E94BE0396958795805D0E94EE
:1002C00058032091600030916100ADECBCEC0E94BD
:1002D000BE03AC015695479556954795569547955B
:1002E0009A010E94BE039695879596958795969557
:1002F00087959C01220F331F880F991F880F991F24
:10030000880F991F820F931FFA01E81BF90BCF0189
:10031000805D0E94580340916000509161009A01F5
:10032000ADECBCEC0E94BE0396958795969587959B
:10033000969587959C01220F331F880F991F880F70
:10034000991F880F991F820F931F9A01281B390B41
:10035000C901805D0E9458038FED0E94580360E040
:1003600081E00E94890383E40E94580319CF90E042
:10037000FC01E154F109E432F10508F067C0E65DE3
:10038000FF4F0C94B803413059F42AB381E090E058
:1003900002C0880F991F6A95E2F7822B8ABB0895E5
:1003A0002AB381E090E002C0880F991F6A95E2F7B6
:1003B000809582238ABB0895413059F427B381E0A8
:1003C00090E002C0880F991F6A95E2F7822B87BBE5
:1003D000089527B381E090E002C0880F991F6A95C5
:1003E000E2F78095822387BB0895413059F424B306
:1003F00081E090E002C0880F991F6A95E2F7822B96
:1004000084BB089524B381E090E002C0880F991F57
:100410006A95E2F78095822384BB0895413059F4B0
:1004200021B381E090E002C0880F991F6A95E2F73E
:10043000822B81BB089521B381E090E002C0880F38
:10044000991F6A95E2F78095822381BB089590E019
:10045000FC01E154F109E432F10508F067C0E25B08
:10046000FF4F0C94B803413059F42BB381E090E076
:1004700002C0880F991F6A95E2F7822B8BBB089503
:100480002BB381E090E002C0880F991F6A95E2F7D4
:10049000809582238BBB0895413059F428B381E0C5
:1004A00090E002C0880F991F6A95E2F7822B88BB03
:1004B000089528B381E090E002C0880F991F6A95E3
:1004C000E2F78095822388BB0895413059F425B323
:1004D00081E090E002C0880F991F6A95E2F7822BB5
:1004E00085BB089525B381E090E002C0880F991F75
:1004F0006A95E2F78095822385BB0895413059F4CF
:1005000022B381E090E002C0880F991F6A95E2F75C
:10051000822B82BB089522B381E090E002C0880F55
:10052000991F6A95E2F78095822382BB08956295B0
:10053000607F90E0FC01E154F109E432F105F8F448
:10054000EE58FF4F0C94B8038BB38F708BBB8BB3FB
:10055000682B6BBB089588B38F7088BB88B3682BFA
:1005600068BB089585B38F7085BB85B3682B65BB69
:10057000089582B38F7082BB82B3682B62BB0895EB
:1005800041E060E082E40E9427028FE99FE001974A
:10059000F1F700C0000040E060E082E40E94270222
:1005A0008FE99FE00197F1F700C000000895CF9315
:1005B000C82F682F62956F7081E40E94970240E017
:1005C00061E082E40E9427020E94C0026C2F81E455
:1005D0000E94970240E061E082E40E9427020E94AC
:1005E000C0028FEC97E00197F1F700C00000CF91B7
:1005F00008952FEF81EE94E0215080409040E1F784
:1006000000C0000041E064E081E40E94B70141E0E5
:1006100065E081E40E94B70141E066E081E40E9468
:10062000B70141E067E081E40E94B70141E060E08A
:1006300082E40E94B70141E062E082E40E94B701D7
:1006400041E061E082E40E94B70140E062E082E4C0
:100650000E94270282E00E94D7028FE19EE4019768
:10066000F1F700C0000088E20E94D7028FEC97E00B
:100670000197F1F700C000008FE00E94D7028FECD5
:1006800097E00197F1F700C0000081E00E94D702D7
:100690008FE19EE40197F1F700C0000086E00E9420
:1006A000D7028FEC97E00197F1F700C000000895A2
:1006B000CF93C82F682F62956F7081E40E949702D4
:1006C00041E061E082E40E9427020E94C0026C2F98
:1006D00081E40E94970241E061E082E40E942702E7
:1006E0000E94C0028FEC97E00197F1F700C0000074
:1006F000CF910895CF93DF93EC018881882331F067
:1007000021960E94580389918111FBCFDF91CF91EF
:100710000895823060F4603160F4811103C090E884
:10072000960F08C0813031F490EC960F03C090E82A
:1007300001C090E8892F0E94D7028FEC97E00197C3
:10074000F1F700C000000895AA1BBB1B51E107C0D0
:10075000AA1FBB1FA617B70710F0A61BB70B881F51
:10076000991F5A95A9F780959095BC01CD010895E0
:10077000EE0FFF1F0590F491E02D0994A29FB001A8
:10078000B39FC001A39F700D811D1124911DB29FC5
:0E079000700D811D1124911D0895F894FFCF66
:10079E000F2754656D70657261747572653D00004A
:00000001FF
