:100000000C942A000C9436010C9436010C943601A1
:100010000C9436010C9436010C9436010C94360184
:100020000C9436010C9436010C9436010C94360174
:100030000C9436010C9436010C9436010C94360164
:100040000C9436010C9436010C9436010C94360154
:100050000C94360111241FBECFE5D8E0DEBFCDBF22
:0C0060000E9483000C941301F894FFCF61
:10006C00CF93C82F84B38E6784BB85EA9EE001973B
:10007C00F1F700C0000083E090E00E94C10081EE27
:10008C0094E00197F1F700C0000083E090E00E943B
:10009C00C10091E29A95F1F7000083E090E00E9494
:1000AC00C10081E28A95F1F7000082E090E00E94A5
:1000BC00C10091E29A95F1F7000088E290E00E946D
:1000CC00C10081E28A95F1F7000088E090E00E947F
:1000DC00C10091E29A95F1F700000E94080186E0B8
:1000EC0090E00E94C10081E28A95F1F700008C2F0C
:0A00FC0090E00E94C100CF9108952A
:10010600CF93DF93CDB7DEB760970FB6F894DEBF17
:100116000FBECDBF8FE00E9436000E942F0180E007
:100126000E94FB000E94080160E080E00E941E0120
:10013600BE016F5F7F4F80E80E94AB002FE38DE02A
:1001460093E0215080409040E1F700C00000E7CFE7
:10015600CF92DF92EF926B01E82E06C09FEFC91A8D
:10016600D90AE90A0E942801F6018491E7FC8081F8
:0C0176008111F4CFEF90DF90CF9008953E
:10018200CF93C82F85B38D7F85BB8C2F82958F70BF
:1001920090E00E94EB008C2F90E00E94EB0081E245
:0A01A2008A95F1F70000CF9108954F
:1001AC00CF93C82F85B3826085BB8C2F82958F70BF
:1001BC0090E00E94EB008C2F90E00E94EB0081E21B
:0A01CC008A95F1F70000CF91089525
:1001D60025B330E1839FC00111242F70822B85BB8C
:1001E60085B3846085BB000085B38B7F85BB08958E
:1001F60097B1907F8F70892B87B986B1806486B955
:0A0206003699FECF84B195B108953A
:1002100081E090E00E94C10083EF91E00197F1F747
:0602200000C0000008957B
:10022600EC010E943B010E943A01CE010E943C0172
:06023600CE010E94380118
:10023C00613019F4805C806801C0806890E00E9495
:04024C00C100089550
:0E02500095B3926095BB90E00E94D600089591
:0E025E0087B1806487B986B1876886B9089534
:04026C000C940000EE
:040270000E943400B4
:020274000895EB
:020276000895E9
:020278000895E7
:00000001FF
