:100000000C942A000C94AF000C94AF000C94AF0039
:100010000C94AF000C94AF000C94AF000C94AF00A4
:100020000C94AF000C94AF000C94AF000C94AF0094
:100030000C94AF000C94AF000C94AF000C94AF0084
:100040000C94AF000C94AF000C94AF000C94AF0074
:100050000C94AF0011241FBECFE5D8E0DEBFCDBFAA
:0C0060000E9436000C94A400F894FFCF1E
:10006C001ABA8FE084BB0E94970080E00E9489003E
:10007C0024EF31E0AC01429FC001439F900D529F91
:10008C00900D11246FEF73E00E947500CB016F315E
:10009C00710550F485B3816085BB85B38D7F85BBBD
:1000AC0085B38B7F85BBE1CF6E51710966307105CD
:1000BC0050F485B3826085BB85B38E7F85BB85B3D9
:1000CC008B7F85BBD2CF849780F285B3846085BB50
:0E00DC0085B38D7F85BB85B38E7F85BBC6CF78
:1000EA00AA1BBB1B51E107C0AA1FBB1FA617B70754
:1000FA0010F0A61BB70B881F991F5A95A9F7809570
:08010A009095BC01CD010895A0
:1001120097B1907E97B997B1892B87B986B18064E0
:0C01220086B93699FECF84B195B10895DE
:10012E0087B1806487B986B1816086B986B18260F5
:0A013E0086B986B1806886B908957D
:10014800EC010E94B4000E94B300CE010E94B500E9
:06015800CE010E94B1007F
:04015E000C940000FD
:040162000E943400C3
:020166000895FA
:020168000895F8
:02016A000895F6
:00000001FF
