:100000000C942A000C9470000C9470000C947000F6
:100010000C9470000C9470000C9470000C947000A0
:100020000C9470000C9470000C9470000C94700090
:100030000C9470000C9470000C9470000C94700080
:100040000C9470000C9470000C9470000C94700070
:100050000C94700011241FBECFE5D8E0DEBFCDBFE9
:0C0060000E9436000C946500F894FFCF5D
:10006C0084B7806884BF84B7806884BF8FEF84BBFB
:10007C0011BA80E085BB2FE936E891E02150304081
:10008C009040E1F700C0000082990BC08F5F85BBE8
:10009C002FE936E891E0215030409040E1F700C064
:1000AC0000008399E7CF815085BB2FE936E891E0BA
:0E00BC00215030409040E1F700C00000DBCF43
:1000CA00EC010E9475000E947400CE010E94760025
:0600DA00CE010E9472003D
:0400E0000C9400007C
:0400E4000E94340042
:0200E800089579
:0200EA00089577
:0200EC00089575
:00000001FF
