:100000000C942D000C946F000C9480000C949C00B8
:100010000C949C000C949C000C949C000C949C00F0
:100020000C949C000C949C000C949C000C949C00E0
:100030000C949C000C949C000C949C000C949C00D0
:100040000C949C000C949C000C949C000C949C00C0
:100050000C949C0000600061800011241FBECFE55D
:10006000D8E0DEBFCDBFE4E5F0E040E017C0B591D9
:10007000A59135912591059107FD0CC0959185912C
:10008000EF01F92FE82F05900D92A217B307D9F7CA
:10009000FE0104C01D92A217B307E1F7E935F4078A
:0E00A00031F70E9457000C949100F894FFCFA6
:1000AE008FEF84BB8FB780688FBF82B3846082BBB3
:1000BE0082B3886082BB8BB780648BBF8BB780683E
:1000CE008BBF85B7826085BF8091600085BBFCCFFA
:1000DE001F920F920FB60F9211248F938091600092
:1000EE008F5F809360008F910F900FBE0F901F90C7
:0200FE00189553
:100100001F920F920FB60F9211248F93809160006F
:100110008150809360008F910F900FBE0F901F90C1
:02012000189530
:10012200EC010E94A1000E94A000CE010E94A20048
:06013200CE010E949E00B8
:040138000C94000023
:04013C000E945500C8
:02014000089520
:0201420008951E
:0201440008951C
:00000001FF
