:100000000C942E000C94A6000C94B7000C94D30012
:100010000C94D3000C94D3000C94D3000C94D30014
:100020000C94D3000C94D3000C94D3000C94D30004
:100030000C94D3000C94D3000C94D3000C94D300F4
:100040000C94D3000C94D3000C94D3000C94D300E4
:100050000C94D300006000750001B40011241FBE91
:10006000CFE5D8E0DEBFCDBFE4E5F0E040E017C06B
:10007000B591A59135912591059107FD0CC09591FC
:100080008591EF01F92FE82F05900D92A217B30784
:10009000D9F7FE0104C01D92A217B307E1F7EB35B3
:1000A000F40731F70E9458000C94C800F894FFCF71
:1000B000CF93DF93CDB7DEB764970FB6F894DEBF6A
:1000C0000FBECDBF8FEF84BB8ABB83E081BB8FB7F0
:1000D00080688FBF82B3826082BB82B3846082BB40
:1000E00082B3886082BB8BB780648BBF8BB780681C
:1000F0008BBF85B7826085BF85B7886085BF85B3B4
:10010000806485BB85B3806885BB84E1E0E6F0E070
:10011000DE01119601900D928A95E1F7E09174004D
:10012000F0E0EE0FFF1F81E090E08C0F9D1FE80FC5
:10013000F91F80818BBB809174008111EFCF82B356
:0C0140008D7F82BB82B3816082BBE8CF60
:10014C001F920F920FB60F9211248F93809174000F
:10015C008F5F809374008F910F900FBE0F901F9044
:02016C001895E4
:10016E001F920F920FB60F9211248F9380917400ED
:10017E008150809374008F910F900FBE0F901F903F
:02018E001895C2
:10019000EC010E94D8000E94D700CE010E94D90035
:0601A000CE010E94D50013
:0401A6000C940000B5
:0401AA000E94560059
:0201AE000895B2
:0201B0000895B0
:0201B2000895AE
:1001B4003F0006005B004F0066006D007D000700F5
:0401C4007F006F0049
:0101C800092D
:00000001FF
