:100000000C942A000C944B000C944B000C944B0065
:100010000C944B000C944B000C944B000C944B0034
:100020000C944B000C944B000C944B000C944B0024
:100030000C944B000C944B000C944B000C944B0014
:100040000C944B000C944B000C944B000C944B0004
:100050000C944B0011241FBECFE5D8E0DEBFCDBF0E
:0C0060000E9441000C943600F894FFCF81
:10006C00EC010E9450000E944F00CE010E945100F2
:06007C00CE010E944D00C0
:1000820081E08ABBCA9B02C081E08BBBCB9BFACFCB
:040092001BBAF8CFCE
:040096000C940000C6
:04009A000E9434008C
:02009E000895C3
:0200A0000895C1
:0200A2000895BF
:00000001FF
