:100000000C942A000C9459000C9459000C9459003B
:100010000C9459000C9459000C9459000C945900FC
:100020000C9459000C9459000C9459000C945900EC
:100030000C9459000C9459000C9459000C945900DC
:100040000C9459000C9459000C9459000C945900CC
:100050000C94590011241FBECFE5D8E0DEBFCDBF00
:0C0060000E9436000C944E00F894FFCF74
:10006C0081E08ABB81E08BBB2FE986E891E02150CF
:10007C0080409040E1F700C000001BBA2FE986E8F1
:10008C0091E0215080409040E1F700C00000EACFA1
:10009C00EC010E945E000E945D00CE010E945F0098
:0600AC00CE010E945B0082
:0400B2000C940000AA
:0400B6000E94340070
:0200BA000895A7
:0200BC000895A5
:0200BE000895A3
:00000001FF
