:100000000C942E000C94F8020C94F8020C94F80254
:100010000C94F8020C94F8020C94F8020C94F80278
:100020000C94F8020C94F8020C94F8020C94F80268
:100030000C94F8020C94F8020C94F8020C94F80258
:100040000C94F8020C94F8020C94F8020C94F80248
:100050000C94F802006000740005FE0011241FBE1D
:10006000CFE5D8E0DEBFCDBFE4E5F0E040E017C06B
:10007000B591A59135912591059107FD0CC09591FC
:100080008591EF01F92FE82F05900D92A217B30784
:10009000D9F7FE0104C01D92A217B307E1F7EB35B3
:1000A000F40731F70E9498010C94B902F894FFCF3D
:1000B00010C00E94D90258F00E94D20240F029F4E8
:1000C0005F3F29F00C94E70251110C94E1020C946B
:1000D000F5020E94690268F39923B1F3552391F365
:1000E000951B550BBB27AA2762177307840738F0A7
:1000F0009F5F5F4F220F331F441FAA1FA9F335D004
:100100000E2E3AF0E0E832D091505040E695001CB7
:10011000CAF72BD0FE2F29D0660F771F881FBB1F71
:10012000261737074807AB07B0E809F0BB0B802D4F
:10013000BF01FF2793585F4F3AF09E3F510578F07B
:100140000C94E7020C94E1025F3FE4F3983ED4F391
:10015000869577956795B795F7959F5FC9F7880F4F
:10016000911D9695879597F90895E1E0660F771FA1
:10017000881FBB1F621773078407BA0720F0621B32
:0E018000730B840BBA0BEE1F88F7E095089501
:10018E000FC00E94D20238F00E94D90220F09523AF
:10019E0011F00C94E7020C94F50211240C94E10278
:1001AE000E94690270F3959FC1F3950F50E0551FA1
:1001BE00629FF001729FBB27F00DB11D639FAA27AE
:1001CE00F00DB11DAA1F649F6627B00DA11D661FFD
:1001DE00829F2227B00DA11D621F739FB00DA11D1E
:1001EE00621F839FA00D611D221F749F3327A00DD8
:1001FE00611D231F849F600D211D822F762F6A2F74
:10020E0011249F5750409AF0F1F088234AF0EE0FD8
:10021E00FF1FBB1F661F771F881F91505040A9F705
:10022E009E3F510580F00C94E7020C94E1025F3F73
:10023E00E4F3983ED4F3869577956795B795F79541
:10024E00E7959F5FC1F7FE2B880F911D96958795B9
:04025E0097F908956F
:1002620011C00E94D20238F00E94D90220F039F463
:100272009F3F19F426F40C94F5020EF4E095E7FB87
:100282000C94E702E92F0E94690258F3BA17620739
:1002920073078407950720F079F4A6F50C94E00221
:1002A2000EF4E0950B2EBA2FA02D0B01B90190018F
:1002B2000C01CA01A0011124FF27591B99F0593FD3
:1002C20050F4503E68F11A16F040A22F232F342F1B
:1002D2004427585FF3CF469537952795A795F04069
:1002E2005395C9F77EF41F16BA0B620B730B840B7E
:1002F200BAF09150A1F0FF0FBB1F661F771F881F36
:10030200C2F70EC0BA0F621F731F841F48F487958D
:1003120077956795B795F7959E3F08F0B0CF93957F
:0E032200880F08F09927EE0F9795879508959C
:10033000CF93DF93CDB7DEB764970FB6F894DEBFE7
:100340000FBECDBF8FEF84BB81BB84E1E0E6F0E060
:10035000DE01119601900D928A95E1F70E94AC02A0
:1003600080E00E949C02682F70E080E090E00E9494
:10037000FF0120E030E040EA50E40E94F10220E07A
:1003800030E04FE753E40E94ED024B015C010E9414
:10039000CB026B017C01072E000C880B990B0E948D
:1003A000FF019B01AC01C501B4010E94C402CC0C49
:1003B000DD1CE1E0F0E0EC0FFD1FEC0DFD1D2081E8
:1003C00025BB20E030E040E251E40E94F1020E94AF
:1003D000CB02660F771FE1E0F0E0EC0FFD1FE60FA8
:1003E000F71F808182BB2FE986E891E02150804091
:0A03F0009040E1F700C00000B3CF19
:1003FA00E89409C097FB3EF49095809570956195B5
:10040A007F4F8F4F9F4F9923A9F0F92F96E9BB276A
:10041A009395F695879577956795B795F111F8CFE6
:10042A00FAF4BB0F11F460FF1BC06F5F7F4F8F4F51
:10043A009F4F16C0882311F096E911C0772321F047
:10044A009EE8872F762F05C0662371F096E8862FDF
:10045A0070E060E02AF09A95660F771F881FDAF736
:0A046A00880F9695879597F908957D
:100474000E94710288F09F5798F0B92F9927B751BD
:10048400B0F0E1F0660F771F881F991F1AF0BA9534
:10049400C9F714C0B13091F00E94E002B1E00895B0
:1004A4000C94E002672F782F8827B85F39F0B93FA2
:1004B400CCF3869577956795B395D9F73EF49095E7
:0E04C4008095709561957F4F8F4F9F4F0895E3
:1004D20057FD9058440F551F59F05F3F71F04795F3
:1004E200880F97FB991F61F09F3F79F087950895D8
:1004F200121613061406551FF2CF4695F1DF08C0F7
:10050200161617061806991FF1CF86957105610513
:0405120008940895AC
:10051600092E0394000C11F4882352F0BB0F40F40B
:10052600BF2B11F460FF04C06F5F7F4F8F4F9F4F4B
:02053600089526
:1005380097B1906297B997B1907E97B997B1892B87
:1005480087B986B1806486B93699FECF85B108959A
:1005580087B1806487B986B1816086B986B18260C7
:0A05680086B986B1806886B908954F
:10057200EC010E94FD020E94FC02CE010E94FE02DA
:06058200CE010E94FA0206
:0E0588005058BB27AA270E9431010C948B0209
:0E0596000E943A026894B1110C94E10208959B
:0E05A40000240A941616170618060906089574
:0E05B20000240A941216130614060506089576
:0E05C000E894BB2766277727CB0197F90895AB
:0C05CE0097F99F6780E870E060E00895F6
:0805DA000E9458000C948B02F2
:0805E2000E94C7000C948B027B
:0605EA009FEF80EC089574
:0405F0000C94000067
:0405F4000E9456000B
:0205F800089564
:0205FA00089562
:0205FC00089560
:1005FE003F0006005B004F0066006D007D000700A7
:04060E007F006F00FA
:00000001FF
