:100000000C942A000C9469000C9478000C949200D3
:100010000C9492000C9492000C9492000C94920018
:100020000C9492000C9492000C9492000C94920008
:100030000C9492000C9492000C9492000C949200F8
:100040000C9492000C9492000C9492000C949200E8
:100050000C94920011241FBECFE5D8E0DEBFCDBFC7
:10006000E4E5F0E040E017C0B591A5913591259108
:10007000059107FD0CC095918591EF01F92FE82FAF
:1000800005900D92A217B307D9F7FE0104C01D9287
:10009000A217B307E1F7E435F40731F70E945400E3
:0800A0000C948700F894FFCFD7
:1000A8008FEF84BB8FB780688FBF82B3846082BBB9
:1000B80082B3886082BB8BB780648BBF8BB7806844
:0A00C8008BBF85B7826085BFFFCFB4
:1000D2001F920F920FB60F9211248F9385B38160F6
:0E00E20085BB8F910F900FBE0F901F90189549
:1000F0001F920F920FB60F9211248F9385B38E7FAC
:0E01000085BB8F910F900FBE0F901F9018952A
:10010E00EC010E9497000E949600CE010E9498007A
:06011E00CE010E949400D6
:040124000C94000037
:040128000E945200DF
:02012C00089534
:02012E00089532
:02013000089530
:00000001FF
