:100000000C942A000C9482000C946C000C949F00B9
:100010000C949F000C949F000C949F000C949F00E4
:100020000C949F000C949F000C949F000C949F00D4
:100030000C949F000C949F000C949F000C949F00C4
:100040000C949F000C949F000C949F000C949F00B4
:100050000C949F0011241FBECFE5D8E0DEBFCDBFBA
:10006000E4E5F0E040E017C0B591A5913591259108
:10007000059107FD0CC095918591EF01F92FE82FAF
:1000800005900D92A217B307D9F7FE0104C01D9287
:10009000A217B307E1F7E435F40731F70E945400E3
:0800A0000C949400F894FFCFCA
:1000A8008FEF84BB8FB780688FBF82B3846082BBB9
:1000B80082B3886082BB8BB780648BBF8BB7806844
:1000C8008BBF85B7826085BF85B3816085BBFFCF55
:1000D8001F920F920FB60F9211248F939F9395B38F
:1000E80081E0892785BB95B382E0892785BB9F91ED
:0C00F8008F910F900FBE0F901F90189575
:100104001F920F920FB60F9211248F939F9395B362
:1001140080E1892785BB9F918F910F900FBE0F902F
:040124001F9018957B
:10012800EC010E94A4000E94A300CE010E94A50039
:06013800CE010E94A100AF
:04013E000C9400001D
:040142000E945200C5
:0201460008951A
:02014800089518
:02014A00089516
:00000001FF
