:100000000C942E000C9495000C9495000C94950083
:100010000C9495000C9495000C9495000C9495000C
:100020000C9495000C9495000C9495000C949500FC
:100030000C9495000C9495000C9495000C949500EC
:100040000C9495000C9495000C9495000C949500DC
:100050000C9495000060006A0001380011241FBE56
:10006000CFE5D8E0DEBFCDBFE4E5F0E040E017C06B
:10007000B591A59135912591059107FD0CC09591FC
:100080008591EF01F92FE82F05900D92A217B30784
:10009000D9F7FE0104C01D92A217B307E1F7EB35B3
:1000A000F40731F70E9458000C948A00F894FFCFAF
:1000B000CF93DF93CDB7DEB72A970FB6F894DEBFA4
:1000C0000FBECDBF8FEF8ABB9AE0E0E6F0E0DE0125
:1000D000119601900D929A95E1F784BB80E485BB5F
:1000E00080E090E013C0E1E0F0E0EC0FFD1FE80FCE
:1000F000F91F2081220F2BBB2FEF39E648E1215059
:1001000030404040E1F700C0000001968A30910580
:0401100054F3E6CFEF
:10011400EC010E949A000E949900CE010E949B006B
:06012400CE010E949700CD
:04012A000C94000031
:04012E000E945600D5
:0201320008952E
:0201340008952C
:0201360008952A
:0A0138003F065B4F666D7D077F6F89
:00000001FF
