:100000000C942E000C949A020C949A020C949A026E
:100010000C949A020C949A020C949A020C949A02F0
:100020000C949A020C949A020C949A020C949A02E0
:100030000C949A020C949A020C949A020C949A02D0
:100040000C949A020C949A020C949A020C949A02C0
:100050000C949A02006000740005420011241FBE37
:10006000CFE5D8E0DEBFCDBFE4E5F0E040E017C06B
:10007000B591A59135912591059107FD0CC09591FC
:100080008591EF01F92FE82F05900D92A217B30784
:10009000D9F7FE0104C01D92A217B307E1F7EB35B3
:1000A000F40731F70E9458000C946602F894FFCFD1
:1000B000CF93DF93CDB7DEB764970FB6F894DEBF6A
:1000C0000FBECDBF8FEF84BB81BB84E1E0E6F0E0E3
:1000D000DE01119601900D928A95E1F70E94590276
:1000E00080E00E943A02682F70E080E090E00E9479
:1000F0009D0120E030E048EC5EE30E9493029B010A
:10010000AC0160E070E088EC92E40E9471020E9411
:10011000D8016B017C019B01ADECBCEC0E944A0252
:10012000AC01569547955695479556954795CA0102
:10013000880F991F440F551F440F551F440F551F1B
:10014000480F591FC601841B950BAC010E944A023F
:10015000969587959695879596958795FC01EE0FD0
:10016000FF1F81E090E08C0F9D1FE80FF91F808139
:1001700085BB440F551FE1E0F0E0EC0FFD1FE40FDD
:10018000F51F808182BB87EA91E60197F1F700C0F5
:040190000000A6CFF6
:100194000FC00E94780238F00E947F0220F095235D
:1001A40011F00C948D020C94970211240C94870284
:1001B4000E94070270F3959FC1F3950F50E0551FFD
:1001C400629FF001729FBB27F00DB11D639FAA27A8
:1001D400F00DB11DAA1F649F6627B00DA11D661FF7
:1001E400829F2227B00DA11D621F739FB00DA11D18
:1001F400621F839FA00D611D221F749F3327A00DD2
:10020400611D231F849F600D211D822F762F6A2F6D
:1002140011249F5750409AF0F1F088234AF0EE0FD2
:10022400FF1FBB1F661F771F881F91505040A9F7FF
:100234009E3F510580F00C948D020C9487025F3F21
:10024400E4F3983ED4F3869577956795B795F7953B
:10025400E7959F5FC1F7FE2B880F911D96958795B3
:0402640097F9089569
:1002680011C00E94780238F00E947F0220F039F411
:100278009F3F19F426F40C9497020EF4E095E7FBDF
:100288000C948D02E92F0E94070258F3BA176207EF
:1002980073078407950720F079F4A6F50C94860275
:1002A8000EF4E0950B2EBA2FA02D0B01B901900189
:1002B8000C01CA01A0011124FF27591B99F0593FCD
:1002C80050F4503E68F11A16F040A22F232F342F15
:1002D8004427585FF3CF469537952795A795F04063
:1002E8005395C9F77EF41F16BA0B620B730B840B78
:1002F800BAF09150A1F0FF0FBB1F661F771F881F30
:10030800C2F70EC0BA0F621F731F841F48F4879587
:1003180077956795B795F7959E3F08F0B0CF939579
:0E032800880F08F09927EE0F97958795089596
:10033600E89409C097FB3EF4909580957095619579
:100346007F4F8F4F9F4F9923A9F0F92F96E9BB272F
:100356009395F695879577956795B795F111F8CFAB
:10036600FAF4BB0F11F460FF1BC06F5F7F4F8F4F16
:100376009F4F16C0882311F096E911C0772321F00C
:100386009EE8872F762F05C0662371F096E8862FA4
:1003960070E060E02AF09A95660F771F881FDAF7FB
:0A03A600880F9695879597F9089542
:1003B0000E940F0288F09F5798F0B92F9927B751E4
:1003C000B0F0E1F0660F771F881F991F1AF0BA95F9
:1003D000C9F714C0B13091F00E948602B1E00895CF
:1003E0000C948602672F782F8827B85F39F0B93FC1
:1003F000CCF3869577956795B395D9F73EF49095AC
:0E0400008095709561957F4F8F4F9F4F0895A7
:10040E0057FD9058440F551F59F05F3F71F04795B7
:10041E00880F97FB991F61F09F3F79F0879508959C
:10042E00121613061406551FF2CF4695F1DF08C0BB
:10043E00161617061806991FF1CF869571056105D8
:04044E000894089571
:10045200092E0394000C11F4882352F0BB0F40F4D0
:10046200BF2B11F460FF04C06F5F7F4F8F4F9F4F10
:020472000895EB
:1004740097B1906297B997B1907E97B997B1892B4C
:1004840087B986B1806486B93699FECF85B108955F
:10049400A29FB001B39FC001A39F700D811D1124C1
:0E04A400911DB29F700D811D1124911D0895B0
:1004B20087B1806487B986B1816086B986B182606E
:0A04C20086B986B1806886B90895F6
:1004CC00EC010E949F020E949E02CE010E94A0029B
:0604DC00CE010E949C020B
:0E04E2005058BB27AA270E9434010C9429020F
:0E04F00000240A941616170618060906089529
:0E04FE0000240A94121613061406050608952B
:0E050C00E894BB2766277727CB0197F908955F
:0C051A0097F99F6780E870E060E00895AA
:080526000E94CA000C94290296
:06052E009FEF80EC089530
:040534000C94000023
:040538000E945600C7
:02053C00089520
:02053E0008951E
:0205400008951C
:100542003F0006005B004F0066006D007D00070063
:040552007F006F00B7
:00000001FF
