:100000000C942D000C949E000C949E000C949E0069
:100010000C949E000C949E000C949E000C949E00E8
:100020000C949E000C949E000C949E000C949E00D8
:100030000C949E000C949E000C949E000C949E00C8
:100040000C949E000C949E000C949E000C949E00B8
:100050000C949E0000600062800011241FBECFE55A
:10006000D8E0DEBFCDBFE4E5F0E040E017C0B591D9
:10007000A59135912591059107FD0CC0959185912C
:10008000EF01F92FE82F05900D92A217B307D9F7CA
:10009000FE0104C01D92A217B307E1F7E935F4078A
:0E00A00031F70E9457000C949300F894FFCFA4
:1000AE008FE08ABBCC9B12C0809160009091610062
:1000BE00019690936100809360002FE986E891E0AD
:1000CE00215080409040E1F700C000008091600018
:1000DE00909161000C9759F483E08BBB2FE986E871
:1000EE0091E0215080409040E1F700C00000CD9B90
:0800FE00D9CF0E948300D6CF88
:1001060010926100109260008CE08BBB2FE986E8AC
:1001160091E0215080409040E1F700C00000089532
:10012600EC010E94A3000E94A200CE010E94A4003E
:06013600CE010E94A000B2
:04013C000C9400001F
:040140000E945500C4
:0201440008951C
:0201460008951A
:02014800089518
:0400000300000106F2
:00000001FF
