:100000000C942A000C946A000C946A000C946A0008
:100010000C946A000C946A000C946A000C946A00B8
:100020000C946A000C946A000C946A000C946A00A8
:100030000C946A000C946A000C946A000C946A0098
:100040000C946A000C946A000C946A000C946A0088
:100050000C946A0011241FBECFE5D8E0DEBFCDBFEF
:0C0060000E9436000C945F00F894FFCF63
:10006C008FE08ABB87BB81BB20E090E080E08BBB3C
:10007C003FE946E851E0315040405040E1F700C0C4
:10008C00000098BB22BB3FE946E851E031504040AC
:10009C005040E1F700C00000CC9B07C08F5F8A3056
:1000AC0008F09F5F9A3008F02F5FCE9BE0CF815015
:0200BC00DECF95
:1000BE00EC010E946F000E946E00CE010E94700043
:0600CE00CE010E946C004F
:0400D4000C94000088
:0400D8000E9434004E
:0200DC00089585
:0200DE00089583
:0200E000089581
:00000001FF
