:100000002DC000009EC00000A8C0000099C00000E4
:1000100097C0000095C0000093C0000091C0000090
:100020008FC000008DC000008BC0000089C00000A0
:1000300087C0000085C0000083C0000081C00000B0
:100040007FC000007DC000007BC0000079C00000C0
:1000500077C00000006000750001720011241FBE0F
:10006000CFE5D8E0DEBFCDBFE4E5F0E040E017C06B
:10007000B591A59135912591059107FD0CC09591FC
:100080008591EF01F92FE82F05900D92A217B30784
:10009000D9F7FE0104C01D92A217B307E1F7EB35B3
:0C00A000F40731F70AD002C0F894FFCF3B
:0E00AC00EC0147D043D0CE0142D0CE0141D06E
:1000BA00CF93DF93CDB7DEB764970FB6F894DEBF60
:1000CA000FBECDBF8FEF84BB8ABB83E081BB789420
:1000DA00A99A929A939A8BB780648BBF8BB78068E0
:1000EA008BBF85B7826085BF85B7886085BFAE9AAA
:1000FA00AF9A84E1E0E6F0E0DE01119601900D92FC
:10010A008A95E1F7E0917400F0E0EE0FFF1F81E0BD
:10011A0090E08C0F9D1FE80FF91F8081880F8BBB21
:0E012A00E0917400E111F0CFA998A89AEBCFF4
:02013800089528
:02013A00089526
:02013C00B5DF2D
:02013E00089522
:020140005FCF8F
:100142008F938FB78F93809174008F5F8093740029
:080152008F918FBF8F9118956A
:10015A008F938FB78F93809174008150809374002E
:08016A008F918FBF8F91189552
:100172003F0006005B004F0066006D007D00070037
:040182007F006F008B
:01018600096F
:00000001FF
