:1000000029C000006EC000006CC000006AC0000083
:1000100068C0000066C0000064C0000062C000004C
:1000200060C000005EC000005CC000005AC000005C
:1000300058C0000056C0000054C0000052C000006C
:1000400050C000004EC000004CC000004AC000007C
:1000500048C0000011241FBECFE5D8E0DEBFCDBFF1
:080060000AD002C0F894FFCFA2
:0E006800EC013AD036D0CE0135D0CE0134D0E6
:1000760084B7806884BF84B7806884BF8FEF84BBF1
:1000860011BA80E002C0839B19C085BB2FEF39E609
:1000960098E1215030409040E1F700C0000082997D
:1000A600F2CF8F5F85BB2FEF39E698E121503040C4
:1000B6009040E1F700C000008399E7CF815085BBEF
:1000C6002FEF39E698E1215030409040E1F700C02B
:0400D6000000DBCF7C
:0200DA00089587
:0200DC00089585
:0200DE00C2DF7F
:0200E000089581
:0200E2008ECFBF
:00000001FF
